{
  "contractName": "ComplainantReport",
  "abi": [
    {
      "anonymous": false,
      "inputs": [
        {
          "indexed": false,
          "internalType": "uint256",
          "name": "id",
          "type": "uint256"
        },
        {
          "indexed": false,
          "internalType": "string",
          "name": "descriptionHash",
          "type": "string"
        },
        {
          "indexed": false,
          "internalType": "address",
          "name": "reporter",
          "type": "address"
        },
        {
          "indexed": false,
          "internalType": "uint256",
          "name": "timestamp",
          "type": "uint256"
        }
      ],
      "name": "ReportCreated",
      "type": "event"
    },
    {
      "anonymous": false,
      "inputs": [
        {
          "indexed": false,
          "internalType": "uint256",
          "name": "id",
          "type": "uint256"
        },
        {
          "indexed": false,
          "internalType": "string",
          "name": "status",
          "type": "string"
        },
        {
          "indexed": false,
          "internalType": "uint256",
          "name": "timestamp",
          "type": "uint256"
        },
        {
          "indexed": false,
          "internalType": "address",
          "name": "updatedBy",
          "type": "address"
        },
        {
          "indexed": false,
          "internalType": "string",
          "name": "reason",
          "type": "string"
        }
      ],
      "name": "StatusUpdated",
      "type": "event"
    },
    {
      "inputs": [],
      "name": "reportCount",
      "outputs": [
        {
          "internalType": "uint256",
          "name": "",
          "type": "uint256"
        }
      ],
      "stateMutability": "view",
      "type": "function",
      "constant": true
    },
    {
      "inputs": [
        {
          "internalType": "uint256",
          "name": "",
          "type": "uint256"
        }
      ],
      "name": "reports",
      "outputs": [
        {
          "internalType": "uint256",
          "name": "id",
          "type": "uint256"
        },
        {
          "internalType": "string",
          "name": "descriptionHash",
          "type": "string"
        },
        {
          "internalType": "address",
          "name": "reporter",
          "type": "address"
        },
        {
          "internalType": "uint256",
          "name": "timestamp",
          "type": "uint256"
        }
      ],
      "stateMutability": "view",
      "type": "function",
      "constant": true
    },
    {
      "inputs": [
        {
          "internalType": "string",
          "name": "_descriptionHash",
          "type": "string"
        }
      ],
      "name": "createReport",
      "outputs": [],
      "stateMutability": "nonpayable",
      "type": "function"
    },
    {
      "inputs": [
        {
          "internalType": "uint256",
          "name": "_id",
          "type": "uint256"
        },
        {
          "internalType": "string",
          "name": "_status",
          "type": "string"
        },
        {
          "internalType": "string",
          "name": "_reason",
          "type": "string"
        }
      ],
      "name": "updateStatus",
      "outputs": [],
      "stateMutability": "nonpayable",
      "type": "function"
    },
    {
      "inputs": [
        {
          "internalType": "uint256",
          "name": "_id",
          "type": "uint256"
        }
      ],
      "name": "getReport",
      "outputs": [
        {
          "internalType": "uint256",
          "name": "",
          "type": "uint256"
        },
        {
          "internalType": "string",
          "name": "",
          "type": "string"
        },
        {
          "internalType": "address",
          "name": "",
          "type": "address"
        },
        {
          "internalType": "uint256",
          "name": "",
          "type": "uint256"
        },
        {
          "components": [
            {
              "internalType": "string",
              "name": "status",
              "type": "string"
            },
            {
              "internalType": "uint256",
              "name": "timestamp",
              "type": "uint256"
            },
            {
              "internalType": "address",
              "name": "updatedBy",
              "type": "address"
            },
            {
              "internalType": "string",
              "name": "reason",
              "type": "string"
            }
          ],
          "internalType": "struct ComplainantReport.Status[]",
          "name": "",
          "type": "tuple[]"
        }
      ],
      "stateMutability": "view",
      "type": "function",
      "constant": true
    }
  ],
  "bytecode": "0x608060405234801561001057600080fd5b506110dd806100206000396000f3fe608060405234801561001057600080fd5b50600436106100575760003560e01c8063185c6f841461005c57806337e829201461007a5780634e7f9b1914610096578063b49dbfc2146100ca578063c942adf7146100e6575b600080fd5b610064610119565b6040516100719190610d09565b60405180910390f35b610094600480360381019061008f9190610a1f565b61011f565b005b6100b060048036038101906100ab9190610a60565b61035d565b6040516100c1959493929190610d70565b60405180910390f35b6100e460048036038101906100df9190610a89565b610693565b005b61010060048036038101906100fb9190610a60565b610827565b6040516101109493929190610d24565b60405180910390f35b60015481565b6001600081548092919061013290610fa9565b91905055506000806000600154815260200190815260200160002090506001548160000181905550818160010190805190602001906101729291906108ff565b50338160020160006101000a81548173ffffffffffffffffffffffffffffffffffffffff021916908373ffffffffffffffffffffffffffffffffffffffff1602179055504281600301819055508060040160405180608001604052806040518060400160405280600881526020017f5265706f7274656400000000000000000000000000000000000000000000000081525081526020014281526020013373ffffffffffffffffffffffffffffffffffffffff1681526020016040518060400160405280600e81526020017f496e697469616c207265706f7274000000000000000000000000000000000000815250815250908060018154018082558091505060019003906000526020600020906004020160009091909190915060008201518160000190805190602001906102a99291906108ff565b506020820151816001015560408201518160020160006101000a81548173ffffffffffffffffffffffffffffffffffffffff021916908373ffffffffffffffffffffffffffffffffffffffff16021790555060608201518160030190805190602001906103179291906108ff565b5050507fcb2421323a7a95f4502c5da8945c2c09e628fdce2c8eadd858ca7ee5e3256ff06001548333426040516103519493929190610d24565b60405180910390a15050565b60006060600080606060008060008881526020019081526020016000206040518060a00160405290816000820154815260200160018201805461039f90610f77565b80601f01602080910402602001604051908101604052809291908181526020018280546103cb90610f77565b80156104185780601f106103ed57610100808354040283529160200191610418565b820191906000526020600020905b8154815290600101906020018083116103fb57829003601f168201915b505050505081526020016002820160009054906101000a900473ffffffffffffffffffffffffffffffffffffffff1673ffffffffffffffffffffffffffffffffffffffff1673ffffffffffffffffffffffffffffffffffffffff1681526020016003820154815260200160048201805480602002602001604051908101604052809291908181526020016000905b8282101561065c57838290600052602060002090600402016040518060800160405290816000820180546104d990610f77565b80601f016020809104026020016040519081016040528092919081815260200182805461050590610f77565b80156105525780601f1061052757610100808354040283529160200191610552565b820191906000526020600020905b81548152906001019060200180831161053557829003601f168201915b50505050508152602001600182015481526020016002820160009054906101000a900473ffffffffffffffffffffffffffffffffffffffff1673ffffffffffffffffffffffffffffffffffffffff1673ffffffffffffffffffffffffffffffffffffffff1681526020016003820180546105cb90610f77565b80601f01602080910402602001604051908101604052809291908181526020018280546105f790610f77565b80156106445780601f1061061957610100808354040283529160200191610644565b820191906000526020600020905b81548152906001019060200180831161062757829003601f168201915b505050505081525050815260200190600101906104a6565b5050505081525050905080600001518160200151826040015183606001518460800151955095509550955095505091939590929450565b600080600085815260200190815260200160002090506000816000015414156106f1576040517f08c379a00000000000000000000000000000000000000000000000000000000081526004016106e890610ce9565b60405180910390fd5b8060040160405180608001604052808581526020014281526020013373ffffffffffffffffffffffffffffffffffffffff16815260200184815250908060018154018082558091505060019003906000526020600020906004020160009091909190915060008201518160000190805190602001906107719291906108ff565b506020820151816001015560408201518160020160006101000a81548173ffffffffffffffffffffffffffffffffffffffff021916908373ffffffffffffffffffffffffffffffffffffffff16021790555060608201518160030190805190602001906107df9291906108ff565b5050507f8d8a2330a126b4c6b0142949b7abfcdd471ece6eeadcce22efb1954eafed7f278484423386604051610819959493929190610dd1565b60405180910390a150505050565b600060205280600052604060002060009150905080600001549080600101805461085090610f77565b80601f016020809104026020016040519081016040528092919081815260200182805461087c90610f77565b80156108c95780601f1061089e576101008083540402835291602001916108c9565b820191906000526020600020905b8154815290600101906020018083116108ac57829003601f168201915b5050505050908060020160009054906101000a900473ffffffffffffffffffffffffffffffffffffffff16908060030154905084565b82805461090b90610f77565b90600052602060002090601f01602090048101928261092d5760008555610974565b82601f1061094657805160ff1916838001178555610974565b82800160010185558215610974579182015b82811115610973578251825591602001919060010190610958565b5b5090506109819190610985565b5090565b5b8082111561099e576000816000905550600101610986565b5090565b60006109b56109b084610e63565b610e32565b9050828152602081018484840111156109cd57600080fd5b6109d8848285610f35565b509392505050565b600082601f8301126109f157600080fd5b8135610a018482602086016109a2565b91505092915050565b600081359050610a1981611090565b92915050565b600060208284031215610a3157600080fd5b600082013567ffffffffffffffff811115610a4b57600080fd5b610a57848285016109e0565b91505092915050565b600060208284031215610a7257600080fd5b6000610a8084828501610a0a565b91505092915050565b600080600060608486031215610a9e57600080fd5b6000610aac86828701610a0a565b935050602084013567ffffffffffffffff811115610ac957600080fd5b610ad5868287016109e0565b925050604084013567ffffffffffffffff811115610af257600080fd5b610afe868287016109e0565b9150509250925092565b6000610b148383610c61565b905092915050565b610b2581610ef9565b82525050565b610b3481610ef9565b82525050565b6000610b4582610ea3565b610b4f8185610ec6565b935083602082028501610b6185610e93565b8060005b85811015610b9d5784840389528151610b7e8582610b08565b9450610b8983610eb9565b925060208a01995050600181019050610b65565b50829750879550505050505092915050565b6000610bba82610eae565b610bc48185610ed7565b9350610bd4818560208601610f44565b610bdd8161107f565b840191505092915050565b6000610bf382610eae565b610bfd8185610ee8565b9350610c0d818560208601610f44565b610c168161107f565b840191505092915050565b6000610c2e601083610ee8565b91507f5265706f7274206e6f7420666f756e64000000000000000000000000000000006000830152602082019050919050565b60006080830160008301518482036000860152610c7e8282610baf565b9150506020830151610c936020860182610ccb565b506040830151610ca66040860182610b1c565b5060608301518482036060860152610cbe8282610baf565b9150508091505092915050565b610cd481610f2b565b82525050565b610ce381610f2b565b82525050565b60006020820190508181036000830152610d0281610c21565b9050919050565b6000602082019050610d1e6000830184610cda565b92915050565b6000608082019050610d396000830187610cda565b8181036020830152610d4b8186610be8565b9050610d5a6040830185610b2b565b610d676060830184610cda565b95945050505050565b600060a082019050610d856000830188610cda565b8181036020830152610d978187610be8565b9050610da66040830186610b2b565b610db36060830185610cda565b8181036080830152610dc58184610b3a565b90509695505050505050565b600060a082019050610de66000830188610cda565b8181036020830152610df88187610be8565b9050610e076040830186610cda565b610e146060830185610b2b565b8181036080830152610e268184610be8565b90509695505050505050565b6000604051905081810181811067ffffffffffffffff82111715610e5957610e58611050565b5b8060405250919050565b600067ffffffffffffffff821115610e7e57610e7d611050565b5b601f19601f8301169050602081019050919050565b6000819050602082019050919050565b600081519050919050565b600081519050919050565b6000602082019050919050565b600082825260208201905092915050565b600082825260208201905092915050565b600082825260208201905092915050565b6000610f0482610f0b565b9050919050565b600073ffffffffffffffffffffffffffffffffffffffff82169050919050565b6000819050919050565b82818337600083830152505050565b60005b83811015610f62578082015181840152602081019050610f47565b83811115610f71576000848401525b50505050565b60006002820490506001821680610f8f57607f821691505b60208210811415610fa357610fa2611021565b5b50919050565b6000610fb482610f2b565b91507fffffffffffffffffffffffffffffffffffffffffffffffffffffffffffffffff821415610fe757610fe6610ff2565b5b600182019050919050565b7f4e487b7100000000000000000000000000000000000000000000000000000000600052601160045260246000fd5b7f4e487b7100000000000000000000000000000000000000000000000000000000600052602260045260246000fd5b7f4e487b7100000000000000000000000000000000000000000000000000000000600052604160045260246000fd5b6000601f19601f8301169050919050565b61109981610f2b565b81146110a457600080fd5b5056fea26469706673582212207040242670d6c8881e13a66c10c6dc8e507804845c0ec560dcdc04a0cbf55ab064736f6c63430008000033",
  "immutableReferences": {},
  "source": "// SPDX-License-Identifier: MIT\r\npragma solidity ^0.8.0;\r\n\r\ncontract ComplainantReport {\r\n    struct Status {\r\n        string status;\r\n        uint timestamp;\r\n        address updatedBy;\r\n        string reason;\r\n    }\r\n\r\n    struct Report {\r\n        uint id;\r\n        string descriptionHash;\r\n        address reporter;\r\n        uint timestamp;\r\n        Status[] statusHistory;\r\n    }\r\n\r\n    mapping(uint => Report) public reports;\r\n    uint public reportCount;\r\n\r\n    event ReportCreated(uint id, string descriptionHash, address reporter, uint timestamp);\r\n    event StatusUpdated(uint id, string status, uint timestamp, address updatedBy, string reason);\r\n\r\n    function createReport(string memory _descriptionHash) public {\r\n        reportCount++;\r\n        Report storage newReport = reports[reportCount];\r\n        newReport.id = reportCount;\r\n        newReport.descriptionHash = _descriptionHash;\r\n        newReport.reporter = msg.sender;\r\n        newReport.timestamp = block.timestamp;\r\n        newReport.statusHistory.push(Status(\"Reported\", block.timestamp, msg.sender, \"Initial report\"));\r\n        emit ReportCreated(reportCount, _descriptionHash, msg.sender, block.timestamp);\r\n    }\r\n\r\n    function updateStatus(uint _id, string memory _status, string memory _reason) public {\r\n        Report storage _report = reports[_id];\r\n        require(_report.id != 0, \"Report not found\");\r\n        _report.statusHistory.push(Status(_status, block.timestamp, msg.sender, _reason));\r\n        emit StatusUpdated(_id, _status, block.timestamp, msg.sender, _reason);\r\n    }\r\n\r\n    function getReport(uint _id) public view returns (uint, string memory, address, uint, Status[] memory) {\r\n        Report memory _report = reports[_id];\r\n        return (_report.id, _report.descriptionHash, _report.reporter, _report.timestamp, _report.statusHistory);\r\n    }\r\n}\r\n",
  "sourcePath": "C:\\Users\\pc\\CrimeReportingDApp\\contracts\\ComplainantReport.sol",
  "compiler": {
    "name": "solc",
    "version": "0.8.0+commit.c7dfd78e.Emscripten.clang"
  },
  "schemaVersion": "3.4.16",
  "updatedAt": "2024-07-05T21:58:40.585Z",
  "networkType": "ethereum",
  "devdoc": {
    "kind": "dev",
    "methods": {},
    "version": 1
  },
  "userdoc": {
    "kind": "user",
    "methods": {},
    "version": 1
  }
}