{
  "contractName": "PoliceRegister",
  "abi": [
    {
      "anonymous": false,
      "inputs": [
        {
          "indexed": false,
          "internalType": "uint256",
          "name": "id",
          "type": "uint256"
        },
        {
          "indexed": false,
          "internalType": "string",
          "name": "descriptionHash",
          "type": "string"
        },
        {
          "indexed": false,
          "internalType": "address",
          "name": "reporter",
          "type": "address"
        },
        {
          "indexed": false,
          "internalType": "address",
          "name": "registrar",
          "type": "address"
        },
        {
          "indexed": false,
          "internalType": "uint256",
          "name": "timestamp",
          "type": "uint256"
        }
      ],
      "name": "RegistrationCreated",
      "type": "event"
    },
    {
      "anonymous": false,
      "inputs": [
        {
          "indexed": false,
          "internalType": "uint256",
          "name": "id",
          "type": "uint256"
        },
        {
          "indexed": false,
          "internalType": "string",
          "name": "status",
          "type": "string"
        },
        {
          "indexed": false,
          "internalType": "uint256",
          "name": "timestamp",
          "type": "uint256"
        },
        {
          "indexed": false,
          "internalType": "address",
          "name": "updatedBy",
          "type": "address"
        },
        {
          "indexed": false,
          "internalType": "string",
          "name": "reason",
          "type": "string"
        }
      ],
      "name": "StatusUpdated",
      "type": "event"
    },
    {
      "inputs": [],
      "name": "registrationCount",
      "outputs": [
        {
          "internalType": "uint256",
          "name": "",
          "type": "uint256"
        }
      ],
      "stateMutability": "view",
      "type": "function",
      "constant": true
    },
    {
      "inputs": [
        {
          "internalType": "uint256",
          "name": "",
          "type": "uint256"
        }
      ],
      "name": "registrations",
      "outputs": [
        {
          "internalType": "uint256",
          "name": "id",
          "type": "uint256"
        },
        {
          "internalType": "string",
          "name": "descriptionHash",
          "type": "string"
        },
        {
          "internalType": "address",
          "name": "reporter",
          "type": "address"
        },
        {
          "internalType": "address",
          "name": "registrar",
          "type": "address"
        },
        {
          "internalType": "uint256",
          "name": "timestamp",
          "type": "uint256"
        }
      ],
      "stateMutability": "view",
      "type": "function",
      "constant": true
    },
    {
      "inputs": [
        {
          "internalType": "uint256",
          "name": "_id",
          "type": "uint256"
        },
        {
          "internalType": "string",
          "name": "_descriptionHash",
          "type": "string"
        },
        {
          "internalType": "address",
          "name": "_reporter",
          "type": "address"
        }
      ],
      "name": "registerComplaint",
      "outputs": [],
      "stateMutability": "nonpayable",
      "type": "function"
    },
    {
      "inputs": [
        {
          "internalType": "uint256",
          "name": "_id",
          "type": "uint256"
        },
        {
          "internalType": "string",
          "name": "_status",
          "type": "string"
        },
        {
          "internalType": "string",
          "name": "_reason",
          "type": "string"
        }
      ],
      "name": "updateStatus",
      "outputs": [],
      "stateMutability": "nonpayable",
      "type": "function"
    },
    {
      "inputs": [
        {
          "internalType": "uint256",
          "name": "_id",
          "type": "uint256"
        }
      ],
      "name": "getRegistration",
      "outputs": [
        {
          "internalType": "uint256",
          "name": "",
          "type": "uint256"
        },
        {
          "internalType": "string",
          "name": "",
          "type": "string"
        },
        {
          "internalType": "address",
          "name": "",
          "type": "address"
        },
        {
          "internalType": "address",
          "name": "",
          "type": "address"
        },
        {
          "internalType": "uint256",
          "name": "",
          "type": "uint256"
        },
        {
          "components": [
            {
              "internalType": "string",
              "name": "status",
              "type": "string"
            },
            {
              "internalType": "uint256",
              "name": "timestamp",
              "type": "uint256"
            },
            {
              "internalType": "address",
              "name": "updatedBy",
              "type": "address"
            },
            {
              "internalType": "string",
              "name": "reason",
              "type": "string"
            }
          ],
          "internalType": "struct PoliceRegister.Status[]",
          "name": "",
          "type": "tuple[]"
        }
      ],
      "stateMutability": "view",
      "type": "function",
      "constant": true
    }
  ],
  "bytecode": "0x608060405234801561001057600080fd5b50611215806100206000396000f3fe608060405234801561001057600080fd5b50600436106100575760003560e01c80630d3eafd61461005c57806333b6601f1461007a578063b49dbfc214610096578063c1f771fb146100b2578063f4ddb5be146100e7575b600080fd5b61006461011b565b6040516100719190610e0e565b60405180910390f35b610094600480360381019061008f9190610b27565b610121565b005b6100b060048036038101906100ab9190610b8e565b6103a2565b005b6100cc60048036038101906100c79190610afe565b610536565b6040516100de96959493929190610e83565b60405180910390f35b61010160048036038101906100fc9190610afe565b6108cb565b604051610112959493929190610e29565b60405180910390f35b60015481565b60016000815480929190610134906110ca565b9190505550600080600060015481526020019081526020016000209050838160000181905550828160010190805190602001906101729291906109c9565b50818160020160006101000a81548173ffffffffffffffffffffffffffffffffffffffff021916908373ffffffffffffffffffffffffffffffffffffffff160217905550338160030160006101000a81548173ffffffffffffffffffffffffffffffffffffffff021916908373ffffffffffffffffffffffffffffffffffffffff1602179055504281600401819055508060050160405180608001604052806040518060400160405280600a81526020017f526567697374657265640000000000000000000000000000000000000000000081525081526020014281526020013373ffffffffffffffffffffffffffffffffffffffff1681526020016040518060400160405280601481526020017f496e697469616c20726567697374726174696f6e000000000000000000000000815250815250908060018154018082558091505060019003906000526020600020906004020160009091909190915060008201518160000190805190602001906102ec9291906109c9565b506020820151816001015560408201518160020160006101000a81548173ffffffffffffffffffffffffffffffffffffffff021916908373ffffffffffffffffffffffffffffffffffffffff160217905550606082015181600301908051906020019061035a9291906109c9565b5050507f4572645dea4dadbcd87bdcb6e08276c5a65746b6e5a7affe104c73d18c222b448484843342604051610394959493929190610e29565b60405180910390a150505050565b60008060008581526020019081526020016000209050600081600001541415610400576040517f08c379a00000000000000000000000000000000000000000000000000000000081526004016103f790610dee565b60405180910390fd5b8060050160405180608001604052808581526020014281526020013373ffffffffffffffffffffffffffffffffffffffff16815260200184815250908060018154018082558091505060019003906000526020600020906004020160009091909190915060008201518160000190805190602001906104809291906109c9565b506020820151816001015560408201518160020160006101000a81548173ffffffffffffffffffffffffffffffffffffffff021916908373ffffffffffffffffffffffffffffffffffffffff16021790555060608201518160030190805190602001906104ee9291906109c9565b5050507f8d8a2330a126b4c6b0142949b7abfcdd471ece6eeadcce22efb1954eafed7f278484423386604051610528959493929190610ef2565b60405180910390a150505050565b600060606000806000606060008060008981526020019081526020016000206040518060c00160405290816000820154815260200160018201805461057a90611098565b80601f01602080910402602001604051908101604052809291908181526020018280546105a690611098565b80156105f35780601f106105c8576101008083540402835291602001916105f3565b820191906000526020600020905b8154815290600101906020018083116105d657829003601f168201915b505050505081526020016002820160009054906101000a900473ffffffffffffffffffffffffffffffffffffffff1673ffffffffffffffffffffffffffffffffffffffff1673ffffffffffffffffffffffffffffffffffffffff1681526020016003820160009054906101000a900473ffffffffffffffffffffffffffffffffffffffff1673ffffffffffffffffffffffffffffffffffffffff1673ffffffffffffffffffffffffffffffffffffffff1681526020016004820154815260200160058201805480602002602001604051908101604052809291908181526020016000905b8282101561088d578382906000526020600020906004020160405180608001604052908160008201805461070a90611098565b80601f016020809104026020016040519081016040528092919081815260200182805461073690611098565b80156107835780601f1061075857610100808354040283529160200191610783565b820191906000526020600020905b81548152906001019060200180831161076657829003601f168201915b50505050508152602001600182015481526020016002820160009054906101000a900473ffffffffffffffffffffffffffffffffffffffff1673ffffffffffffffffffffffffffffffffffffffff1673ffffffffffffffffffffffffffffffffffffffff1681526020016003820180546107fc90611098565b80601f016020809104026020016040519081016040528092919081815260200182805461082890611098565b80156108755780601f1061084a57610100808354040283529160200191610875565b820191906000526020600020905b81548152906001019060200180831161085857829003601f168201915b505050505081525050815260200190600101906106d7565b50505050815250509050806000015181602001518260400151836060015184608001518560a001519650965096509650965096505091939550919395565b60006020528060005260406000206000915090508060000154908060010180546108f490611098565b80601f016020809104026020016040519081016040528092919081815260200182805461092090611098565b801561096d5780601f106109425761010080835404028352916020019161096d565b820191906000526020600020905b81548152906001019060200180831161095057829003601f168201915b5050505050908060020160009054906101000a900473ffffffffffffffffffffffffffffffffffffffff16908060030160009054906101000a900473ffffffffffffffffffffffffffffffffffffffff16908060040154905085565b8280546109d590611098565b90600052602060002090601f0160209004810192826109f75760008555610a3e565b82601f10610a1057805160ff1916838001178555610a3e565b82800160010185558215610a3e579182015b82811115610a3d578251825591602001919060010190610a22565b5b509050610a4b9190610a4f565b5090565b5b80821115610a68576000816000905550600101610a50565b5090565b6000610a7f610a7a84610f84565b610f53565b905082815260208101848484011115610a9757600080fd5b610aa2848285611056565b509392505050565b600081359050610ab9816111b1565b92915050565b600082601f830112610ad057600080fd5b8135610ae0848260208601610a6c565b91505092915050565b600081359050610af8816111c8565b92915050565b600060208284031215610b1057600080fd5b6000610b1e84828501610ae9565b91505092915050565b600080600060608486031215610b3c57600080fd5b6000610b4a86828701610ae9565b935050602084013567ffffffffffffffff811115610b6757600080fd5b610b7386828701610abf565b9250506040610b8486828701610aaa565b9150509250925092565b600080600060608486031215610ba357600080fd5b6000610bb186828701610ae9565b935050602084013567ffffffffffffffff811115610bce57600080fd5b610bda86828701610abf565b925050604084013567ffffffffffffffff811115610bf757600080fd5b610c0386828701610abf565b9150509250925092565b6000610c198383610d66565b905092915050565b610c2a8161101a565b82525050565b610c398161101a565b82525050565b6000610c4a82610fc4565b610c548185610fe7565b935083602082028501610c6685610fb4565b8060005b85811015610ca25784840389528151610c838582610c0d565b9450610c8e83610fda565b925060208a01995050600181019050610c6a565b50829750879550505050505092915050565b6000610cbf82610fcf565b610cc98185610ff8565b9350610cd9818560208601611065565b610ce2816111a0565b840191505092915050565b6000610cf882610fcf565b610d028185611009565b9350610d12818560208601611065565b610d1b816111a0565b840191505092915050565b6000610d33601683611009565b91507f526567697374726174696f6e206e6f7420666f756e64000000000000000000006000830152602082019050919050565b60006080830160008301518482036000860152610d838282610cb4565b9150506020830151610d986020860182610dd0565b506040830151610dab6040860182610c21565b5060608301518482036060860152610dc38282610cb4565b9150508091505092915050565b610dd98161104c565b82525050565b610de88161104c565b82525050565b60006020820190508181036000830152610e0781610d26565b9050919050565b6000602082019050610e236000830184610ddf565b92915050565b600060a082019050610e3e6000830188610ddf565b8181036020830152610e508187610ced565b9050610e5f6040830186610c30565b610e6c6060830185610c30565b610e796080830184610ddf565b9695505050505050565b600060c082019050610e986000830189610ddf565b8181036020830152610eaa8188610ced565b9050610eb96040830187610c30565b610ec66060830186610c30565b610ed36080830185610ddf565b81810360a0830152610ee58184610c3f565b9050979650505050505050565b600060a082019050610f076000830188610ddf565b8181036020830152610f198187610ced565b9050610f286040830186610ddf565b610f356060830185610c30565b8181036080830152610f478184610ced565b90509695505050505050565b6000604051905081810181811067ffffffffffffffff82111715610f7a57610f79611171565b5b8060405250919050565b600067ffffffffffffffff821115610f9f57610f9e611171565b5b601f19601f8301169050602081019050919050565b6000819050602082019050919050565b600081519050919050565b600081519050919050565b6000602082019050919050565b600082825260208201905092915050565b600082825260208201905092915050565b600082825260208201905092915050565b60006110258261102c565b9050919050565b600073ffffffffffffffffffffffffffffffffffffffff82169050919050565b6000819050919050565b82818337600083830152505050565b60005b83811015611083578082015181840152602081019050611068565b83811115611092576000848401525b50505050565b600060028204905060018216806110b057607f821691505b602082108114156110c4576110c3611142565b5b50919050565b60006110d58261104c565b91507fffffffffffffffffffffffffffffffffffffffffffffffffffffffffffffffff82141561110857611107611113565b5b600182019050919050565b7f4e487b7100000000000000000000000000000000000000000000000000000000600052601160045260246000fd5b7f4e487b7100000000000000000000000000000000000000000000000000000000600052602260045260246000fd5b7f4e487b7100000000000000000000000000000000000000000000000000000000600052604160045260246000fd5b6000601f19601f8301169050919050565b6111ba8161101a565b81146111c557600080fd5b50565b6111d18161104c565b81146111dc57600080fd5b5056fea2646970667358221220c9e3e76f42d72054c868facb948669747ba1728644c0a7d4b4121f7a8cc5736364736f6c63430008000033",
  "immutableReferences": {},
  "source": "// SPDX-License-Identifier: MIT\r\npragma solidity ^0.8.0;\r\n\r\ncontract PoliceRegister {\r\n    struct Status {\r\n        string status;\r\n        uint timestamp;\r\n        address updatedBy;\r\n        string reason;\r\n    }\r\n\r\n    struct Registration {\r\n        uint id;\r\n        string descriptionHash;\r\n        address reporter;\r\n        address registrar;\r\n        uint timestamp;\r\n        Status[] statusHistory;\r\n    }\r\n\r\n    mapping(uint => Registration) public registrations;\r\n    uint public registrationCount;\r\n\r\n    event RegistrationCreated(uint id, string descriptionHash, address reporter, address registrar, uint timestamp);\r\n    event StatusUpdated(uint id, string status, uint timestamp, address updatedBy, string reason);\r\n\r\n    function registerComplaint(uint _id, string memory _descriptionHash, address _reporter) public {\r\n        registrationCount++;\r\n        Registration storage newRegistration = registrations[registrationCount];\r\n        newRegistration.id = _id;\r\n        newRegistration.descriptionHash = _descriptionHash;\r\n        newRegistration.reporter = _reporter;\r\n        newRegistration.registrar = msg.sender;\r\n        newRegistration.timestamp = block.timestamp;\r\n        newRegistration.statusHistory.push(Status(\"Registered\", block.timestamp, msg.sender, \"Initial registration\"));\r\n        emit RegistrationCreated(_id, _descriptionHash, _reporter, msg.sender, block.timestamp);\r\n    }\r\n\r\n    function updateStatus(uint _id, string memory _status, string memory _reason) public {\r\n        Registration storage _registration = registrations[_id];\r\n        require(_registration.id != 0, \"Registration not found\");\r\n        _registration.statusHistory.push(Status(_status, block.timestamp, msg.sender, _reason));\r\n        emit StatusUpdated(_id, _status, block.timestamp, msg.sender, _reason);\r\n    }\r\n\r\n    function getRegistration(uint _id) public view returns (uint, string memory, address, address, uint, Status[] memory) {\r\n        Registration memory _registration = registrations[_id];\r\n        return (_registration.id, _registration.descriptionHash, _registration.reporter, _registration.registrar, _registration.timestamp, _registration.statusHistory);\r\n    }\r\n}\r\n",
  "sourcePath": "C:\\Users\\pc\\CrimeReportingDApp\\contracts\\PoliceRegister.sol",
  "compiler": {
    "name": "solc",
    "version": "0.8.0+commit.c7dfd78e.Emscripten.clang"
  },
  "schemaVersion": "3.4.16",
  "updatedAt": "2024-07-05T21:58:40.842Z",
  "networkType": "ethereum",
  "devdoc": {
    "kind": "dev",
    "methods": {},
    "version": 1
  },
  "userdoc": {
    "kind": "user",
    "methods": {},
    "version": 1
  }
}